:020000040800F2
:1000000088060020C50000089F1100089D11000807
:1000100000000000000000000000000000000000E0
:10002000000000000000000000000000E7110008D0
:100030000000000000000000E5110008E9110008C0
:10004000D700000800000000D7000008D700000813
:10005000D7000008D7000008D7000008D700000824
:1000600000000000D7000008D7000008D7000008F3
:10007000D7000008D7000008D700000800000000E3
:10008000D70000080000000000000000D7000008B2
:1000900000000000D7000008D7000008D7000008C3
:1000A00000000000D700000800000000D700000892
:1000B0000348854600F00CFB00480047012000087B
:1000C000880600200448804704480047FEE7FEE712
:1000D000FEE7FEE7FEE7FEE761120008B100000858
:1000E00030B50B46014600202022012409E00D46D0
:1000F000D5409D4205D31D469540491B2546954058
:1001000040191546521E002DF1DC30BD70B500249B
:100110002546002801DA01244042002901DA0125A0
:100120004942FFF7DDFFAC4200D04042002C00D036
:10013000494270BD10B5202A04DB0846203AD04061
:10014000002110BD0B46D340D0402024A21A91407C
:100150000843194610BD421C0178401C0029FBD100
:10016000801A7047F0B507460846584087B0C00F60
:10017000049048000E46590040084908BC1A8841BE
:1001800005D2384631461E4617460B4602465800F1
:10019000400810434CD0300D039040055900400DED
:1001A000490D0590401A0290402872DA1803012187
:1001B000000B09050843019004980092002805D01F
:1001C00001995242002088410092019002984021FA
:1001D0000A1A0199009800F0C3F905460C466B46CF
:1001E00007CB00F0CDF9C0197141039A0E0D002321
:1001F000D71756401A467A40164344D0049A002A2C
:100200002DD0029A012A039A15DC1205C01A9141D9
:1002100001263605001C7141D20F059ED2070093BE
:10022000019202962A46234600F0CAF907B0F0BDB3
:1002300038463146FAE71605224A0F46B218C01A68
:10024000B74101210905001C4F4100187F411146AB
:1002500018187941E20F10436D19644113E0E20769
:100260006D0815436408C2071443039A012612055A
:10027000C01A91413605001C7141CE074008304339
:100280004908C01851412A46234600F08CF9CDE7B1
:10029000FFE7049801224000C117121A00238B4186
:1002A00004983146C417381AA141EEE730B401244E
:1002B000E407634030BC55E730B40124E4076140F3
:1002C00030BC4FE70000E0FFF0B51FB488B00B99D9
:1002D0000998002448400999C00F4900490809912C
:1002E000C0070B990090490049080B91099908989B
:1002F000A64608431CD00B990A98084318D00998C1
:1003000001244000420D4800410D099824050003D6
:10031000000B204309900B980003000B20430B9027
:1003200050181C494018002201901446104605E060
:10033000002001460DB0F0BD032801DA034600E0BD
:1003400003239C46C11A0AAE0AE05F0008ADED5BCC
:100350004F00F75B7D430027AA187C41491C5B1EB8
:100360006145F2DD410004AB5A522104120C0A43EC
:10037000240C401C0828DFDB01980290009970468D
:1003800001910090059B049A0799069800F018F9CE
:10039000D0E700000DFCFFFFF0B50C465C4085B0D7
:1003A000E40FE40703944C000026640859009446C7
:1003B000490802460296224321D062460A431ED0D3
:1003C0006200570D4A000E032303550D0124024617
:1003D0002C492405781B1B0B360B4018234326435E
:1003E000614600901C46501AB44103D30098401C4B
:1003F000009002E0921800985B41002803DA002088
:10040000014605B0F0BD00200121090507468646DA
:1004100011E064461D46141BB54106D36546521BC8
:10042000B341744607430C43A646CD07400849082C
:10043000284392185B4105460D43EAD11046184304
:1004400013D06046194650407140084306D06046BC
:10045000101AB34106D20122002306E00022012334
:10046000DB0702E00122D2435310009874460105D5
:10047000381C6141029C039D0019694100F093F80A
:10048000BFE70000FD0300000EB5C217C10F5040CA
:10049000CA0740180021054B0293019200910A46B9
:1004A0000B4600F08DF803B000BD000033040000DF
:1004B00010B5002904DB0124E40740428C412146A9
:1004C000002B04DB1C460123DB075242A3418B4275
:1004D00000D1824210BD000010B5002904DB0124C8
:1004E000E40740428C412146002B04DB1C460123DB
:1004F000DB075242A341994200D1904210BD000057
:10050000F0B51FB40646002082B005464024019194
:1005100000901BE0019922460F463046FFF70AFE85
:10052000049A059B801A994110D310461946224619
:1005300000F016F8361A8F4101972246012000215B
:10054000009F00F00DF838184D4100902046641EC1
:100550000028DFDC019B00982946324607B0F0BD39
:1005600010B5202A04DB0146203A9140002010BD3E
:10057000914020239C1A0346E3401943904010BD4C
:1005800010B5202A06DBCB170846203A1041C117C8
:100590000B4306E00B461341D0402024A21A9140A1
:1005A0000843194610BD10B5002B08DA0024401C82
:1005B000614192185B411A4301D14008400010BDCF
:1005C000F0B51FB482B005460C0003D0084600F019
:1005D000DBFF02E000F0D8FF203002460090214609
:1005E0002846FFF7BDFF049B059A04460F461843B3
:1005F0001143084314D0184610431BD000984021E3
:100600000A1A18460599FFF795FD05460E46009A09
:1006100005990498FFF7A4FF084305D0012004E0E2
:100620002046394607B0F0BD0020C11705430E43F0
:100630002C43374300990E986305401A7905E40A64
:1006400000220C43FD0A0A3002D500200146E9E7EA
:100650000105101969410C9C0D9D00196941FFF7B6
:10066000A2FFDFE770B54B005B0803430BD04B00E4
:100670005C0D002633466542B341D417AD1AA34141
:1006800002DB0020014670BD12053018514170BDDB
:100690004A0009030123090B1B0519430A4B10B536
:1006A000520D9A4202DA0020014610BD064B343347
:1006B0009A4203DC9A1AFFF73DFD10BD034BD21896
:1006C000FFF74EFF10BD0000FF030000CDFBFFFF52
:1006D000064C0125064E05E0E36807CC2B430C3C95
:1006E00098471034B442F7D3FFF7E6FC4C370008C4
:1006F0006C370008FEB500231A461B1A8A4103DB3B
:100700000020014603B0F0BD4A000D0301212D0B6E
:100710000905520D0D43D10702D100186D41521E3B
:100720005110FF31FF310131002704463E46384663
:10073000009701910246012100200905FFF7FAFC0C
:10074000C3197141F818324684468E464A416146C3
:100750002846611A904104D36046241A9541764692
:100760001F46241900986D41401C00903428E1DD9B
:10077000F91930467041091BA84103D20022D24327
:10078000134601E00022134601980105381C71410F
:10079000FFF709FFB6E70000F0B5002358E001229B
:1007A0009A4014460A4052D006685F000325BD40B7
:1007B000AE43AC460660DD08AD002D182E6AAE468D
:1007C0005D07EF0E0F25BD40AE4375462E6286686D
:1007D0006546AE4386604568A5434560C468654686
:1007E000AC43C4609D081C4CAD002D19AF689C073C
:1007F000260F0F24B440A4463C400927FF06B84208
:1008000001D100270FE0154FB84201D101270AE0BE
:10081000134FB84201D1022705E0124FB84201D16F
:10082000032700E00527B740A74210D1AE68644611
:10083000A643AE600C4C25689543256065689543DA
:100840006560A5689543A560E5689543E5605B1C18
:100850000A46DA40A3D1F0BD000001400004004880
:1008600000080048000C004800040140F8B50023CF
:100870008DE001249C40A44622407DD04C68022C8F
:1008800001D0122C0CD1DC08A40027183C6A5D07AB
:10089000ED0E0F26AE40B4430E69AE4026433E62D5
:1008A00005685E000324B4400F79A543BF07BF0F5E
:1008B000B7402F4307604D68012D05D0022D03D0AE
:1008C000112D01D0122D0ED18568CF68A543B740F8
:1008D0002F43876047686546AF430D79ED06ED0FFE
:1008E0009D403D434560C568A5438C68B4402C439A
:1008F000C4604C68E40049D5284CA56901263543FD
:10090000A561A4699D0834400094254CAD002F19C1
:10091000BC689D072E0F0F25B540AC430925ED0699
:10092000A84201D100250FE01E4DA84201D10125AA
:100930000AE01D4DA84201D1022505E01B4DA84249
:1009400001D1032500E00525B5402543BD60184CC5
:1009500025684E689543F60300D515432560656804
:100960004E689543B60300D515436560A5684E688B
:100970009543F60202D500E008E01543A560E5685E
:100980004E689543B60200D51543E5605B1C0A68C6
:100990001446DC4000D06CE7F8BD000000100240B7
:1009A000000001400004004800080048000C004816
:1009B0000004014001480068704700000400002066
:1009C00002480168491C01607047000004000020D3
:1009D00010B506480168102211430160002000F0A4
:1009E00007F800F017F8002010BD000000200240BA
:1009F00010B5044600F0C4F87D21C900FFF770FB74
:100A000000F0C8FA00222146501E00F01FF8002016
:100A100010BD000008B50C488169012211438161B5
:100A200080691040002200901146501F00F00EF81F
:100A300000221146901E00F009F800221146501EB7
:100A400000F004F808BD00000010024010B500F0EE
:100A5000A7FB10BDF8B5054644480E460068C00720
:100A6000C00FB0420AD241480168490849003143E9
:100A700001600068C007C00FB0425CD128783C4CD0
:100A8000800705D56068F0218843A9680843606045
:100A90002878C0073FD06868012813D02168022851
:100AA00013D08907002946DA616889088900014363
:100AB0006160FFF77FFF6968074601290DD00229B1
:100AC00017D024E021688903ECE78901EAE7FFF702
:100AD00071FFC11B2748814217D860680007800F4B
:100AE0000128F4D117E0FFF765FFC11B21488142BF
:100AF0000BD860680007800F0228F4D10BE0FFF7E5
:100B000059FFC11B1B48814201D90320F8BD606811
:100B10000007800FF3D115480168C907C90FB1421A
:100B20000BD9016849084900314301600068C007DA
:100B3000C00FB04201D00120F8BD2878400706D58B
:100B40006068072109028843E9680843606000F093
:100B50002DF86168084A0906090F515CC840074929
:100B600008600020FFF744FF0020F8BD002002408D
:100B700000100240881300005036000800000020DA
:100B80000148006870470000000000200448054943
:100B900000684968044A4905490F515CC8407047DC
:100BA00000000020001002406036000810B512A3BB
:100BB0000FCB88B06C460FC413A30FCB0FC41649DC
:100BC0004A680C20134603401448042B0FD0082B0E
:100BD0000DD193021B0F6C46E45CC96A04AB090794
:100BE000090F595CD20304D5FFF77AFA604308B0C5
:100BF00010BD0B486043FAE7020304050607080925
:100C00000A0B0C0D0E0F1010010203040506070855
:100C1000090A0B0C0D0E0F100010024000127A0092
:100C200000093D00FEB504460078D04DC00747D00E
:100C300068680007800F012807D068680007800FE8
:100C4000022809D16868C00306D52868800337D513
:100C5000606800287ED033E0012062680004012A29
:100C600011D08100002A01D0052A10D02A688243C1
:100C70002A602868884328606068002814D0FFF73D
:100C800099FE06460CE0296801432960F4E72A68CA
:100C90000A432A60F7E7FFF78DFE801B64286FD8B0
:100CA00028688003F7D50BE0FFF784FE064604E0D2
:100CB000FFF780FE801B6428F1D828688003F7D4F2
:100CC00020780126800700283BDA68680007800F3B
:100CD00007D068680007800F022809D16868C00340
:100CE00006D42868800715D5E068012832D111E0C4
:100CF000E0680028286815D030432860FFF75AFEC6
:100D0000074604E0FFF756FEC01B0228C7D8286834
:100D10008007F7D52868F82188432169C90008436E
:100D200028600EE0400840002860FFF743FE0746B9
:100D300004E0FFF73FFEC01B0228B0D828688007F8
:100D4000F7D42078000724D5E0690028686A10D01D
:100D5000304300E008E16862FFF72CFE074604E03C
:100D6000FFF728FEC01B022899D8686A8007F7D5CC
:100D70000FE0400840006862FFF71CFE074605E0F0
:100D80009DE0FFF717FEC01B022888D8686A80071D
:100D9000F7D4207804274007002860DA002001906B
:100DA000E869C00008D4E969B8060143E961E96966
:100DB00001400120009101906D480168C90511D4DE
:100DC0000168821511430160FFF7F4FD009005E012
:100DD000FFF7F0FD0099401A642870D86448006855
:100DE000C005F5D5A06801280AD0002801D0052843
:100DF00010D0286A400840002862286AB84301E001
:100E0000286A30432862A068002812D0FFF7D2FD7C
:100E100000900AE0286A38432862F1E7FFF7CAFD2C
:100E20000099411A5348814249D8286A8007F5D56C
:100E30000DE0FFF7BFFD009006E0FFF7BBFD009956
:100E4000411A4C4881423AD8286A8007F5D4019863
:100E5000002804D0E969012000078143E961207876
:100E6000C00635D5606901280CD0401D686B23D0C1
:100E700038436863686B400840006863FFF79AFD79
:100E8000064622E0686B38436863686B30436863EA
:100E9000FFF790FD064604E0FFF78CFD801B02285B
:100EA0005BD8686B8007F7D5686BF8218843A16928
:100EB000C900084368630BE0B8436863F4E74CE09B
:100EC000FFF778FD801B022847D8686B8007F7D4AE
:100ED000206A002846D069680907890F022943D093
:100EE000012636060228286805D0B0432860FFF79F
:100EF00061FD044633E0B0432860FFF75BFD074621
:100F000004E0FFF757FDC01B022826D8286880019F
:100F1000F7D4E86AE16A000900010843E862616AFF
:100F2000A06A084369683D2212049143084368603F
:100F3000286830432860FFF73DFD044604E0FFF7D2
:100F400039FD001B022808D828688001F7D509E080
:100F5000FFF730FD001B022801D90320FEBD2868E1
:100F60008001F5D40020FEBD0120FEBD001002402E
:100F70000070004088130000042204490428086916
:100F800002D09043086170471043FBE700E000E0A7
:100F900070470000094910B5401E884201D9012060
:100FA00010BD074C60610321081F00F0F9F8002014
:100FB000A06107202061002010BD0000FFFFFF009E
:100FC00000E000E010B5FFF7E3FF10BD70B50400CE
:100FD00019D02421204660300646417220680168FD
:100FE00049084900016020680025056020684560C7
:100FF00020688560204600F03FF8E5667572B5729E
:101000003572002070BD012070BD70B5040005D0A0
:1010100025466035687A002802D006E0012070BDC0
:1010200000202872204600F03DF8242068722068D5
:101030000168490849000160204600F0ADF9012827
:10104000EDD0606A002802D0204600F037F9206811
:1010500041680122D20291434160206881680822E0
:10106000914381602068016801221143016020469C
:1010700000F089F970BD000010B50068074988428A
:101080000AD10748816901229203914381610920B5
:101090000C21C006FFF780FB10BD000000380140A6
:1010A0000010024000B500680E4987B0884216D192
:1010B0000D488269012189030A43826180690840E1
:1010C00005900C2000900220019001210320039044
:1010D0000291049109206946C006FFF7C7FB07B0DB
:1010E00000BD00000038014000100240FFB5064678
:1010F00004466036707A81B00D4620284CD1002D10
:101100000AD0002A08D0A168C001814207D1216914
:10111000002904D1E90702D0012005B0F0BD317AE1
:10112000012939D0012131720021E166212171723A
:10113000274640373A827A82788A0022401E788297
:1011400080212046049B00F0B1F9002816D101202F
:10115000A1680003814202D12069002810D02168D3
:10116000287808856D1C788A0028E5D10022402166
:101170002046049B00F09AF9002808D00320CCE711
:1011800028882168C005C00D0885AD1CEBE720202C
:10119000707200203072C0E70220BEE7FEE77047A1
:1011A0008307FF22DB0E9A408907090E9940002829
:1011B0000BDA0007000F0838830808489B0018184E
:1011C000C36993430B43C3617047830804489B0082
:1011D0001B181868904308431860704700ED00E042
:1011E00000E400E07047704710B5FFF7E9FBFFF738
:1011F000E9FE10BD10B590B00120039010200490BE
:101200000224002005210094C90409900B90089441
:101210000A916846FFF706FD002800D0FEE7072088
:101220000C9080200E90052000020F900D9401215B
:101230000CA8FFF70FFC002800D0FEE7FFF7A0FC8A
:101240007D21C900FEF74CFFFFF7A4FE0420FFF745
:1012500093FE00221146501EFFF7F8FB10B010BDA0
:10126000134801680122114301604168114A11408D
:1012700041600168104A1140016001680122920436
:101280009143016041683F22120491434160C16A69
:1012900009090901C162016BFF2214329143016304
:1012A000416B49084900416300218160704700009B
:1012B000001002400CB8FF08FFFFF6FE10B5818C4D
:1012C000C90707D001684A6801235B049A43836A0F
:1012D0001A434A60818C890707D501684A6801234F
:1012E0001B049A43C36A1A434A60818C490707D595
:1012F00001684A6801239B049A43036B1A434A60BE
:10130000818C090707D501684A680123DB039A43EA
:10131000436B1A434A60818CC90607D502689168FD
:1013200001231B039943836B19439160818C8906C8
:1013300007D501688A6801235B039A43C36B1A438C
:101340008A60818C490612D503685A680121090513
:10135000046C8A4322435A60026C8A4207D10268B5
:10136000516803235B059943436C19435160818C99
:10137000090607D501684A680123DB04806C9A439B
:1013800002434A6010BD0021C166202260304272D3
:101390008272017208467047F8B504462369A26854
:1013A000E6691A43636910213343002026681A4313
:1013B00033680546394F3B401343336023685A680E
:1013C00003263603B243E66832435A60236AA269B1
:1013D00026681A43B3680B273F02BB431343B3602D
:1013E0002F4A126B9207920F06D0012A08D0022AC8
:1013F00008D0032A07D101E0002104E0022102E025
:10140000042100E008210122E369D203934224D1A0
:1014100000290CD002290DD0042913D0082917D097
:101420000125010909010007400F084332E0FFF7D9
:10143000ADFB09E061681B4A48088018FEF750FEC2
:1014400080B2EEE7FFF7B2FB616840004A08F4E7BC
:101450006168012248081204EFE7002908D0022938
:1014600009D004290BD008290ED001252846F8BD43
:10147000FFF78CFB05E061680B4A480806E0FFF7C0
:1014800095FB61684A0801E0616848088018FEF72A
:1014900027FE80B22168C860E8E70000F369FFFF1B
:1014A000001002400024F40000127A00F8B51E4635
:1014B00015460F460446FFF77DFA29462546603556
:1014C000009000291AD043E0701C17D0002E05D0E0
:1014D000FFF770FA0099401AB0420FD920680268ED
:1014E00080218A43026021680A68202082430A60C2
:1014F00021680B68C20093430B601EE02068C1693D
:1015000038468843E0D128E0701C21D0002E05D059
:10151000FFF750FA0099401AB04219D920680168C3
:1015200080229143016021680A68202082430A607A
:1015300021680A68C3009A430A6021688A685208D1
:1015400052008A606872A872002028720320F8BDD9
:101550002068C16938468843D6D00020F8BD000015
:101560000FB410B504A9074B02AA039800F07CF948
:10157000044602A9002000F013FD204610BC08BC60
:1015800004B01847A11F00082021020C01D010212F
:101590001046020A01D010460839020901D010464F
:1015A000091F820801D01046891E420801D0881EFA
:1015B0007047081A704700004900CA020243100031
:1015C00000D004204A0D01D001221043044A490DE5
:1015D000914201D102210843012800D10520704722
:1015E000FF070000F8B504464F1EC8000838211850
:1015F00015461E46086849683A4606239A4310D0A5
:101600002A463346FEF760FE3A46D200083AA3184F
:101610001A687F1E5B68FEF7A5FD06223B469343D2
:10162000EED1022F23D0042F11D0062F2FD12A461E
:101630003346FEF749FEE36AA26AFEF793FD2A46A7
:101640003346FEF741FE636A226AFEF78BFD2A46A7
:101650003346FEF739FEE369A269FEF783FD2A46A9
:101660003346FEF731FE63692269FEF77BFD2A46A9
:101670003346FEF729FEE368A268FEF773FD2A46AB
:101680003346FEF721FE63682268FEF76BFDF8BD66
:10169000002210B5134610460149FEF77DFE10BD2D
:1016A0000000F03F10B5FEF75DFD10BD002210B543
:1016B000134610461146FEF76FFE10BD10B5072108
:1016C000024A00200907FEF7CDFF10BD010300000C
:1016D000034A10B500201107FEF7C4FF10BD00003B
:1016E00001FDFFFF02E008C8121F08C1002AFAD15D
:1016F00070477047002001E001C1121F002AFBD192
:101700007047000001490860704700001000002089
:10171000F0B51FB484B007980699020D014314D0A8
:101720004A484B491018484305140F9801280E9851
:101730001CD0281A401C0024464E474900940191B1
:101740000290002814DA474227E00F98012443A3AF
:10175000012808D0002104980F9A84600360C260B9
:10176000416009B0F0BD0E98C143F4E74042E2E7A2
:10177000074612E0F80707D0224633460199009841
:10178000FEF7A2FD0191009022463346104619460D
:10179000FEF79AFD04460E467F10002FEAD102980C
:1017A000019B0028009A0799069802DAFEF78CFD43
:1017B00001E0FEF7F1FD04460E460022284BFEF73D
:1017C0008BFE03D80020C043014607E00022254BD2
:1017D00020463146FEF7C6FCFEF75AFF102409E00A
:1017E000002C0ADB0A220023FEF78AFE059B30321A
:1017F0001A55641E02460A43F2D11122641C059B4D
:10180000121B1C190F9B012B03D0012308430ED17F
:101810000AE0084304D011200E9000200F9084E7C6
:101820000E98151A6D1E0BE00E98824202DD002301
:101830006D1C03E0824201DA00236D1E002BEED006
:1018400004980F998260C16030C08AE701FCFFFFF5
:10185000104D0000000024400000F03F3000000068
:101860000000F0430000E03FFFB597B006460025BA
:1018700018E2252877D100242746FD49049400E08A
:101880000443761C32780120203A90400842F7D178
:1018900030782A280ED002223078014630390929C2
:1018A00016D804990A235943303940181443761C3A
:1018B0000490F1E7189802C804911890002904DAFE
:1018C0000120400304434842049002200443761C54
:1018D00030782E2814D1042004437078761C2A28EE
:1018E00009D11898761C80C8189009E00A214F4346
:1018F000303FC719761C3078014630390929F5D9AF
:1019000030786C2810D006DC4C281AD068280ED00D
:101910006A2817D104E0742813D07A2812D110E075
:101920000120400504430CE00121090501E00321E9
:1019300009050C437178814203D101200005241868
:10194000761C761C3078119066280BD013DC582852
:101950007DD009DC00287BD04528F6D04628F4D07D
:1019600047281AD1A5E118E0632835D0642870D043
:10197000652812D19DE170286CD008DC6728F1D071
:1019800069287BD06E280DD06F2806D1BAE0732865
:101990002ED0752871D0782859D01A9A1999904765
:1019A0006D1C7EE16002400F022809D003280DD093
:1019B0000428189801680DD00D60001D189070E182
:1019C0001898EA1701680D604A60F6E718980168F0
:1019D0000D80F2E70D70F0E718986A4601781172F1
:1019E000001D18900020507202A80090012005E010
:1019F000189802C8189000200091C04361070DD5C7
:101A0000002101E00199491C0191B94212DA814299
:101A1000F8DB009A515C0029F4D10BE0002101E0D1
:101A20000199491C01918142FADB019A0099895C74
:101A30000029F5D1019904981A9B471A2146384686
:101A4000199A00F097FA0199401945180BE04FE0F8
:101A50002CE113E04EE0009800990078491C0091B9
:101A60001A9A199990470198401E0190401CF2D192
:101A7000214638461A9B199A10E137E00A200021C6
:101A8000009001916002410F022907D0189A01CA03
:101A90001892C2179446032908D00AE01898C01D6E
:101AA000C108C90005C91891944607E000B2C217E1
:101AB0009446042902D140B2C1178C4600226146E7
:101AC000944506DA0A460021404291418C462D2178
:101AD00002E0210504D52B216A461173012103E0A0
:101AE000E10701D02021F7E7029155E00A200AE042
:101AF000102008E0102000900021042004430191F0
:101B0000082703E008200021019100906002410FA6
:101B1000022907D0189A01CA189200229446032974
:101B200008D008E01898C01DC108C90005C918915F
:101B3000944603E080B2042900D1C0B20021029192
:101B4000210729D51199702906D0009A1021019BEF
:101B50004A401A4305D00EE040216A461173012124
:101B600008E06146014306D030216A46117311999D
:101B7000517302210291009A0821019B4A401A43A5
:101B80000AD16146014301D1610705D530216A467A
:101B9000117301217F1E02911199582904D035A19A
:101BA0000E910DA90D910DE037A1F9E76146019B5A
:101BB000009AFEF7A5FC0E9B8C469B5C0D9A521E6C
:101BC0000D92137061460143F0D10D9805A9081AD2
:101BD00020300190600703D501200004844300E019
:101BE00001270198874201DD381A00E000200199A1
:101BF00000904118029809180498401A0490E003D4
:101C000006D421461A9B199A049800F0B3F9451995
:101C1000002706E003A81A9AC05D199990476D1C29
:101C20007F1C02988742F5DBE0030CD521461A9B06
:101C3000199A049800F09EF9451904E01A9A302088
:101C4000199990476D1C0099481E00900029F5DCF9
:101C500008E00D980D990078491C0D911A9A199970
:101C600090476D1C0199481E01900029F1DC63E149
:101C70000928010030313233343536373839616262
:101C80006364656600000000303132333435363726
:101C900038394142434445460000000000F05AF9FB
:101CA0004519761C3078002800D0E2E528461BB0A4
:101CB000F0BD600700D406271898C01DC108C900F0
:101CC00048680A680831C30FDB071891190001D072
:101CD0009CA108E0210501D59BA104E0E10701D00A
:101CE0009AA100E09AA1430011985B081091652821
:101CF0000CD006DC452809D046281DD0472841D104
:101D000041E0662818D067283CD13CE00021112F23
:101D100001DB112000E0781C0191009008A911A8B6
:101D2000FFF7F6FC139905910021119A15927F1C7B
:101D300012980197009150E00120C0070390012004
:101D4000019008A9009711A8FFF7E2FC139A1499D3
:101D500005920022119B009212981593059A019208
:101D6000002901D0104602E0791C40180190381A71
:101D700001D5019804E04042401E0090781C01907B
:101D8000C01B029043E0012F00DA01270021112F30
:101D900001DD112000E038460191009008A911A84A
:101DA000FFF7B6FC13990591119A0021129815922C
:101DB0000091019721070CD40599B94201DB0199E3
:101DC00000E00191012904DD159A491E515C30297A
:101DD00006D0B84201DA011D05DA0121029115E0B1
:101DE0000199491EEDE7002805DC00994118009192
:101DF0000199091A03E0019A411C914200DD019109
:101E00000099401A401C02900120C007039020074F
:101E100006D402990198814202DB0020C04302905F
:101E200000206946C87707AF012103980337C90727
:101E3000884224D0022011902B2012900398002871
:101E40000CDA404203902D20129007E00A210398FB
:101E5000FEF746F930317F1E039039701199481E04
:101E600011900029F2DC03980028EFD1791E129816
:101E700008703078202108404530BF1E387006A811
:101E8000C01BC01D039010980078002800D00120CE
:101E9000019941180298C017091803980918049865
:101EA000401A401E0490E00306D421461A9B199A5A
:101EB000049800F05FF8451910980078002803D0C6
:101EC0001A9A199990476D1CE00324D521461A9B54
:101ED000199A049800F04EF845191CE00098002863
:101EE00007DB00990598884203DD1598405C199935
:101EF00001E0199930201A9A904700986D1C401CF7
:101F000000900298401E0290002804D11A9A2E20B8
:101F1000199990476D1C0199481E01900029DDDC3C
:101F200005E038781A9A7F1C199990476D1C03991F
:101F3000481E03900029F4DC21461A9B199A049844
:101F4000ACE600002D0000002B0000002000000087
:101F500000000000F8B5044600251E461746880418
:101F600004D405E039462020B0476D1C641EF9D525
:101F70002846F8BDFFB50446002581B01E46C803BB
:101F800001D5302700E02027880404D505E0384635
:101F90000399B0476D1C641EF9D5284605B0F0BD05
:101FA0000A68531C0B6010707047000010B50021C8
:101FB000074AFE2308E014691C4014615162146949
:101FC000E407FCD05162401E0028F4DC10BD000084
:101FD0000044014001463039092901D808467047BC
:101FE00001466139052901D8573870470146413902
:101FF000052901D8373870470020C04370470000DA
:10200000FFB0E7B0FEF7E4FCFFF7F4F8FE484269E2
:10201000012149040A43426142690A40009243692E
:102020004A0013434361436913400093036B032445
:102030002343036383690B43836143690B43436118
:102040004169114341618169C21411438161552085
:1020500000020926F6063060EC48F060EC48826A1F
:1020600001210A438262FF22F432C2624263E94CD8
:10207000A26930231A43A261026A0A430262E44A57
:1020800040325268CB031A43E14B40335A60026836
:102090000A430260A06A08221043A062DE48E062A0
:1020A0006063A06930221043A061206A0843206267
:1020B000D84840304068CA031043D64A4032506086
:1020C000206808432060D64DD44828602846FEF793
:1020D0007DFFE120400268600020A860E860286180
:1020E0000C2068612846FEF790FFCE496005086025
:1020F000CD48C1690902090A42071143C16120693B
:10210000FE2108402061642000F072FD0446642036
:1021100000F06EFD05461020706101F083FA02E0C8
:102120000120FFF743FFC14800698006F8D4002072
:10213000BBAE00213154401C3228FADBC822BCA1BE
:102140003046FFF70DFABBA8FEF705F8BBA9081843
:102150002038067EC37D827D417D089607930692D6
:102160000591067DC37C827C417C019102A94CC112
:10217000017C0091C37B827BAE4918A8FFF7F0F980
:10218000002618AFB85DFFF725FF0201B8194078A7
:10219000FFF720FFF10F101889194A10C8A951182C
:1021A0000870A54B01229E48FEF7A0FFB61C972E93
:1021B000E8DB00200926F60600E0401C31694905ED
:1021C000890FFAD09D4988427EDD3069800502D5AD
:1021D00030694005F9D430694005800FE9D1049099
:1021E00009201021C006416101F01CFA00208F4E29
:1021F000019005E00120FFF7D9FE0198401C0190F5
:1022000030698006F6D40020074681006750401CE4
:102210006F500F28F9DB01F005FA00200921C906EB
:10222000486107460220FFF7C1FE3069B9006850D7
:102230000921C9064869103048617F1C082FF1DB6D
:10224000297B2068C907490E08432060297AC907FD
:10225000090E084320602979C907490F0843206007
:1022600029786068C907490E08436060297CC9075E
:10227000090E08436060297DC907490F0843606063
:10228000287EA168C007400E0143A160287FC007D7
:10229000000E0143A1602A6902200240520011434E
:1022A000A160AA68E168024052011143E1606A68D6
:1022B000024092011143E1602A680240520011433A
:1022C000E16021696A6900E05DE302405201114367
:1022D0002161AA690240920111432161EA69024029
:1022E000520011432161EA686169024050010143D3
:1022F0006161A86820221040800001436161E868A4
:10230000C30804200340194361612B68A16913408D
:102310005B001943A1612B6913409B001943A16124
:10232000EB69DB0803401943A1616B69E169134064
:102330005B001943E161AB6913409A001143E1610D
:102340002A69520802401143E1616B690822216A3F
:102350001340DB0019432162AB6913401B01194391
:102360002162EB695B08034019432162EB68616AF3
:102370001340DB0019436162AB6813401B01194332
:1023800061626B685B080340194361622B68A16A54
:102390001340DA001143A162EB6810221340DB0006
:1023A0001943A162AB689B0803401943A1626B68A3
:1023B000E16A13409B001943E1622B681340DB0084
:1023C0001943E1622B699B0803401943E1626B6981
:1023D000216B13409B0019432163AB691340DA0062
:1023E00011432163EA699208024011432163EB68BB
:1023F000616B4022134019436163AB6813405A007C
:10240000114361636A681BE0001002400AAA8A0057
:1024100000440140002C01405FEA00000038014008
:102420001400002000E100E004ED00E0000400489A
:1024300025660000F836000888130000906500004B
:102440001209024011436163297CA06B4906C90F40
:102450000843A06301F0E6F803210198FDF756FE5A
:10246000401DFFF7A3FD00210920C00641610F4672
:102470000220FFF79BFDFE480069B9006850092063
:10248000C0064169103141617F1C082FF0DB297BB8
:102490002068C907890E08432060297AC907890F77
:1024A000084320602979C907090F0843206029786B
:1024B0006068C907890E08436060297CC907890FD5
:1024C00008436060297DC907090F08436060287EC2
:1024D000A168C007800E0143A160287FC007800F5C
:1024E0000143A1602A690220024092001143A160C9
:1024F000AA68E168024012011143E1606A68024083
:102500001143E1602A68024092001143E1606A6968
:1025100021690240120111432161AA69024011435D
:102520002161EA690240920011432161E968626910
:10253000014009010A436261A968090901400A438F
:102540006261E9688B0808210B401A4362612E68BA
:10255000A26920231E403243A2612E69360906403B
:102560003243A261EE69B6080E403243A2616E6941
:10257000E2691E403243E261AE69360906403243E9
:10258000E2612E690E403243E2616E69226A0E40BA
:10259000B60032432262AE69B60806403243226278
:1025A000EE690E4032432262EE68626A0E40B60067
:1025B00032436262AE68B6080640324362626E68B9
:1025C0000E40324362622E68A26A0E40B600324369
:1025D000A262EE68F60806403243A262AE68760850
:1025E0000E403243A2626F681026E26A37407F00D5
:1025F0003A43E2622F68FF0807403A43E2622F69DC
:102600007F080F403A43E2626F69226B37407E00D9
:1026100032432263AE69F608064032432263EE6914
:1026200076080E4032432263EE68626B76081E40E5
:1026300032436263AB685B0903401A4362636B68B1
:10264000DB080B401A4362632969A26B4909014008
:102650000A43A26300F0E6FF019803214000FDF762
:1026600055FD401DFFF7A2FC00200927FF067861F9
:1026700006460220FFF79AFC7D480069B1006850C9
:10268000786910307861761C082EF2DB297B20688F
:10269000C907C90F08432060297AC907C90E084332
:1026A000206029786068C907C90F08436060297CE9
:1026B000C907C90E08436060297EA068C907C90F11
:1026C0000843A060297FC907C90E0843A060297A82
:1026D000E0688907C90F0843E0606A6802210A4080
:1026E000D2001043E0602A7D20699207D20F104388
:1026F0002061AA690A40D10008432061287B6169F2
:102700008007C00F01436161A868420810200240A1
:10271000114361612A78A1699206D20F1143A16128
:102720002A69520802401143A1612A7DE16992069B
:10273000D20F1143E161AA69520802401143E161DD
:102740002A7D216A1207D20F11432162AB69082248
:1027500013405B00194321622B7B616A1B07DB0F6F
:1027600019436162AB6813405A00114361622A78D1
:10277000A16A1207D20F1143A162EA680240114315
:10278000A1622A79E16AD206D20F1143E1622A6876
:1027900002401143E1622A7D216BD206D20F114320
:1027A0002163AA690240114321632A7B616B5206AF
:1027B000D20F11436163AA6892080240114361631A
:1027C0002969A06B09090422114008430026A0636F
:1027D00037460396B8002058C10700D1179701214A
:1027E000084325287ED00ADC09287CD002DC012899
:1027F0000DD1C2E00D2877D01B2808D1BAE04128BE
:1028000073D0492872D0992871D09F2802D0002017
:10281000014601E017490020009001913846FDF77C
:1028200033FE02460B460020134900F017FA019BC5
:10283000009AFDF749FD3246039BFDF793FC7F1C90
:10284000064603910E2FC5DB0498C2000AA8831820
:102850001E605960049B002B13DD1018024680385F
:10286000803AC36F926F3046FDF722FE09D005E033
:10287000000400480000F03F000024400498401E7F
:1028800004900498401C0490032800DAA8E41798E8
:10289000FDF7FAFD0B4602460020C34900F0DEF9C1
:1028A0000E9E0B46024630460F99FDF775FD119BB3
:1028B000129AFDF709FD074600200391BBA90646C1
:1028C0000A18203A401C16753228F9DB3A46B7A19F
:1028D000BBA8039BFEF744FE0020E1A90E54401C58
:1028E0000E2805E036E04BE038E040E03CE038E020
:1028F000F4DB00207CA90E54401CFA28FBDB3A468E
:10290000AAA17CA8039BFEF72BFE7CA8FDF723FC65
:10291000A84B0222A8A1A948FEF7E8FB3A46A3A1CA
:10292000BBA8039BFEF71CFEA24B0C22BBA9A3482D
:10293000FEF7DCFB9F4B0322A1A1A048FEF7D6FBCC
:1029400080200927FF0678617D20C000FFF72EFB5D
:102950007E612EE40020012189075DE7002099496E
:102960005AE70020984957E70020984954E700208B
:10297000974951E7002097494EE7002096494BE7D9
:102980000020964948E70022954B13991498FDF7CB
:10299000A3FD7DD2002114911391A1630920102180
:1029A000C006416100F03EFE00208E4E019005E021
:1029B0000120FFF7FBFA0198401C01903069800666
:1029C000F6D400F02FFE00210920C00641610F4619
:1029D0000220FFF7EBFA3069B90068500920C00601
:1029E0004169103141617F1C082FF1DB00274761ED
:1029F000287AC007C00F03902879C007C00F009045
:102A0000287C4006C00FA06300F00CFE0321019853
:102A1000FDF77CFB401DFFF7C9FA0920C00647619E
:102A20000220FFF7C3FA3069B90068500920C006D8
:102A30004169103141617F1C082FF1DB002747619C
:102A4000287A0399C007800F084303902969A06B77
:102A50004909022211400843A06300F0E3FD0198F8
:102A6000032140000690FDF751FB401DFFF79EFA41
:102A70000920C00647610220FFF798FA3069B900C3
:102A800068500920C0064169103141617F1C00E097
:102A900081E0082FEFDB00200927FF067861287A04
:102AA0000399C007400F0843039028790099C00795
:102AB000400F084300902969A06B090904221140C6
:102AC0000843A063119812990291059000F0AAFDA5
:102AD0000020049040207861002709E00120FFF7E2
:102AE00065FA3069400602D50498401C04907F1CAA
:102AF0000698B842F2DC04981E282CDD0399009851
:102B000088420CD0A06B884202D10021264804E004
:102B10000099884203D13448002112911190119BF1
:102B2000129A05990298FDF7C3FC00D111E7002223
:102B30002D4B11991298FDF7BBFC0FD1802009266F
:102B4000F60670617D20C000FFF730FA002070614A
:102B50007D2000011CE000212448DEE70022124B0A
:102B600011991298FDF7A4FCE8D000221F4B11998F
:102B70001298FDF79DFCD9D180200926F6067061D8
:102B8000FF20F530FFF712FA002070617D20C000B1
:102B9000FFF70CFADDE60022144B13991498FDF7A9
:102BA000E1FA13911490D4E60000244025302E66FB
:102BB00000000000881300006F6B0000140000206C
:102BC00079657300000008400000104000001440C8
:102BD0000000184000001C4000002040000022407F
:102BE000006AF840000400480088C3400000F03F3D
:102BF000F0B50B30C108C900144F0026144A0FE08D
:102C000003688B420BD38B4205D95C1A4318456885
:102C100030C3083B00E04368136002C004E0021DBB
:102C200010680028ECD13046002803D1386800280D
:102C300001D00020F0BD064A06481060064A121A6C
:102C4000D208D20044C001203860D7E70C00002031
:102C5000080000208C00002088020020F0B51FB47E
:102C600094B084460C460246179F1698029049007D
:102C700078006300490840080493002A01D0012528
:102C800000E00025FE4A5D19AD1853109D422CD37B
:102C90007D00029E0195002E00D00126AE19F94B51
:102CA000B5189D4221D3029B0246F74D1A430BD023
:102CB0002A46944202D16246002A05D06246049B0D
:102CC000002A05D0012504E00020294619B0F0BDF6
:102CD00000255D19ED4B9D4207D8029E019D002EF7
:102CE00000D00126AD199D4207D93B4660462146DA
:102CF000169AFEF7D7FC19B0F0BD0025002C28DA93
:102D0000E34B984225DAE34B984201DB022520E0B1
:102D1000DD4B98421DDBE04B060DF318142B09DD4B
:102D20003426F61A029BF3401A46B340029EB34281
:102D30000BD00EE0029E002E0BD11426F61A03468D
:102D4000F3401A46B340834203D1D507ED0F022367
:102D50005D1B62460B46134318D1002F16DA002C78
:102D600003D0022D01D0012D06D00220FEF7CAFCAF
:102D7000FEF78EFC19B0F0BD0220FEF7C3FCFEF793
:102D800087FC0122D207514019B0F0BD029B002BF5
:102D900062D1BF4B984220D1C048844201D110007B
:102DA00008D0B948814209DB002F10DB169839465C
:102DB00019B0F0BD0020B44919B0F0BD002F06DAFB
:102DC00001223946D2071698514019B0F0BDB449D6
:102DD00079440868496819B0F0BDAB4EB04226D1BD
:102DE000002F22DA002904D0994211D1100008D016
:102DF00010E0100072D1A649E20FD207114319B0BA
:102E0000F0BD0020E20F0146D207114319B0F0BD1A
:102E1000994203DB6046214619B0F0BD23460020ED
:102E20003146FDF7B9FA19B0F0BD1046F3E7994203
:102E300012DA01239B079F4203D12346104619460D
:102E4000C6E3984B9F4207D1221E05DB6046114620
:102E500000F0C4FB19B0F0BD630066465B083200A9
:102E60002BD1002907D08A4A914226D1002C0BDDB4
:102E7000002F0FDA18E0022D16D0002C14D0012DEF
:102E800012D1002C14DB0FE0002C16DA002F09DB26
:102E9000012D03D000207E4919B0F0BD00208249E9
:102EA00019B0F0BD012D03D00020014619B0F0BDCE
:102EB00000200121C90719B0F0BDE217521C0D9284
:102EC0002A430CD0794A90427EDD794B794A984268
:102ED00012DD91420ADC002F18DB20E049E20120DC
:102EE000FEF710FCFEF7E2FB19B0F0BD6648814228
:102EF00002DB002F0ADC12E0914202DA002F05DB30
:102F00000DE0614B994213DD002F08DD0220FEF732
:102F1000F9FBFEF7D3FB4900490800223FE20220FB
:102F2000FEF7F0FBFEF7D4FB49004908002236E229
:102F3000002260462146FDF7B9F9012204460E46FB
:102F4000D243FDF78FFB5C4A5C4BFDF7B5F9224697
:102F50003346FDF7B9F90022524BFDF7ADF90746AC
:102F600022463346039110461946FDF7ADF93A461D
:102F7000039BFDF7A9F9074603220B915207504B1B
:102F800020463146FDF7A0F901910A904D4A4C4B7D
:102F900038460B99FDF798F9074602914A4A4B4B80
:102FA00020463146FDF790F93A46029BFDF77EF93F
:102FB00004460B460246079101990A98FDF7D2F89C
:102FC00000260F46304600E009E0019B0A9AFDF713
:102FD0006DF92246079BFDF76FF90B4681E101244D
:102FE00000202405A14207DA352230461946FDF7B4
:102FF00039FB06463420C0430A151218264810181B
:1030000003900803000B204907460F4330498842CC
:1030100001DC002003E02F49884202DA01201190F0
:1030200005E0002011900398401C3F1B039002977D
:1030300011983946C2002848784480180F92436896
:10304000026830460B930092FDF730F901910A9027
:1030500030460B9B009A0299FDF784F802460B4616
:1030600000200949FDF798F907910490019B0A9AFD
:10307000FDF72AF90591002409910C902EE000003B
:10308000FFFF1F00FFFF0F000000F03F0000E0FF08
:103090000000F07F0000404301FCFFFF0000F0BF94
:1030A0001C0900000000E03F0000F0FF0000E041CC
:1030B0000000F043FFFFEF3F555555555555D53F9F
:1030C0004715F73FFE822B6544DF5DF80BAE543E9B
:1030D0008E9803007AB60B002C060000FE48784458
:1030E00000680E90012178104907084311990B9B45
:1030F000890440180121C90447183946009A0E98DE
:10310000FDF7D4F83246029BFDF7D6F802460B468F
:1031100020460999FDF7D8F8064600913B4620461F
:103120000E9A0999FDF7D0F8019B0A9AFDF7C4F8A9
:103130003246009BFDF7BAF8079B049AFDF7C4F8E6
:103140000B9105990C9A12900B461046FDF7BCF8AE
:1031500006460246E1480F460B4606217844FEF734
:1031600041FA32463B460191049010461946FDF75C
:10317000ABF8019B049AFDF7A7F806460F462046D8
:10318000059B0C9A0999FCF7EDFF0B9B129AFDF732
:103190009BF832463B46FCF7E5FF01910490099904
:1031A00022460B461046FDF78FF8CD4E00223346DF
:1031B00002910090FCF7D6FF019B049AFCF7D2FF26
:1031C0002246334620460691FDF770F8029B009A8E
:1031D000FDF76CF8019B049AFDF76EF80646029124
:1031E00022461046069B0999FDF76EF807460191A5
:1031F0003046059B0C9A0299FDF766F80646049145
:103200002246069B0B991298FDF75EF83246049B06
:10321000FCF7A8FF02460B46079104903846019937
:10322000FCF7A0FF00200E4604463A46019BFDF73E
:103230003DF8079B049AFDF73FF8074607220B91DC
:103240005207A84B20463146FDF73EF805910A90FB
:10325000A54AA44B38460B99FDF736F8074600916E
:10326000A24AA34B20463146FDF72EF83A46009B72
:10327000FCF778FF9F4B7B440F9A9B181A685B689A
:10328000FCF770FF02900B910398FDF7FDF8079192
:1032900004900B9B029A05990A98FCF763FF964BE2
:1032A0007B440F9A9B181A685B6801930C92FCF799
:1032B00059FF079B049AFCF755FF00260F4630463E
:1032C000079B049AFCF7F2FF019B0C9AFCF7EEFFB8
:1032D000059B0A9AFCF7EAFF0B9B029AFCF7ECFFAE
:1032E0000B4600210C910D99844C6D1E294301D190
:1032F000834C0C9117990022089202460D461698AD
:10330000FCF7E2FF039104902B46089A1799169850
:10331000FCF7CCFF32463B46FCF7D6FF039B049AF2
:10332000FCF720FF0B910E9032463B462946089849
:10333000FCF7CAFF06460F460B9B0E9AFCF712FFDE
:10334000704A0D46914220DB5242AA18024310D126
:1033500032463B46FCF7AAFF029100906A4A6B4B4B
:103360000B990E98FCF7FEFE029B009AFDF7B4F84D
:103370002BD20220FEF7C6F9FEF7A0F94900490852
:10338000E20FD207114319B0F0BD6A00604B52083A
:103390009A421AD35F4AAA1802430CD102E01143A1
:1033A00019B0F0BD32463B46FCF780FF0B9B0E9AEE
:1033B000FDF792F809D80220FEF7A4F9FEF788F984
:1033C00049004908E20FD207E9E76A0000235208E2
:1033D00051490393100D514B40189A4223DD0122AD
:1033E0001205401CC24050194200520D51184C4A5F
:1033F0007A441268034694464A4ACA4093430203F9
:103400000120120B000510181422511AC840039015
:10341000002D01DA40420390624630463946FCF7FF
:1034200045FF06460F4632463B460B990E98FCF781
:1034300099FE00200D4602463B4B0490FCF744FFEA
:1034400001910A90394A3A4B29460498FCF73CFF0F
:103450000D91089032463B4629460498FCF726FF1A
:103460000B9B0E9AFCF728FF324A334BFCF72CFFDC
:103470000D9B089AFCF776FE07460B46024607911D
:1034800001990A98FCF76EFE05460E46019B0A9AC2
:10349000FCF70CFF3A46079BFCF70EFF33462A4623
:1034A0000B910E9019461046FCF70EFF0746024698
:1034B00022480B46079105217844FEF793F83A46D7
:1034C000079BFCF701FF33462A46FCF7F5FE07464B
:1034D00009913146284633E00E0600003805000009
:1034E0000000084009C7EE3FFD033ADCF5015B141C
:1034F000E02F3EBE0E040000D40300000000F03FA9
:103500000000F0BF00009040FE822B654715973CFD
:1035100000CC904000346F3F01FCFFFF0000E03F13
:10352000FC020000FFFF0F00432EE63F396CA80CA1
:10353000615C20BEEF39FAFE422EE63F0C0200002D
:103540000B9B0E9AFCF7C0FE0B9B0E9AFCF70AFE33
:1035500004900123079100229B0738460999FCF744
:10356000A5FE019108903A4631462846099BFCF792
:10357000ABFE019B089AFCF70FFF079B049AFCF730
:1035800095FE33462A46FCF791FE0022124BFCF7CB
:1035900093FE064603980D460005411909150029BA
:1035A00011DC30462946039AFDF75CF8FEF704F873
:1035B000042801D1FEF78CF830462946039AFDF71E
:1035C00051F8064600E029180B46324621460C9871
:1035D000FCF77AFE19B0F0BD0000F03FF8B50646E2
:1035E0000C46FDF787F805000F4600D00120014387
:1035F00049000B484908411AC90F0DD0002E01D0CF
:10360000012100E000210C4361004908401AC00F6D
:1036100002D10120FEF776F828463946F8BD0000B1
:103620000000F07F00B510200921C9064861032081
:10363000FEF7BCFC05480169890603D501698906C6
:10364000FCD4F8E701698906FCD500BD00040048F8
:103650000000000000000000010203040607080942
:103660000000000001020304000000000000F03F21
:10367000000000000000F83F000000000000000013
:103680000000004003B8E23F00000000000000001E
:1036900006D0CF43EBFD4C3E033333333333E33FAC
:1036A000FFAB6FDBB66DDB3F4D268F515555D53FD8
:1036B00001411DA96074D13F65DBC9934A86CD3FA6
:1036C000EF4E454A287ECA3F3E5555555555C53F94
:1036D00093BDBE166CC166BF2CDE25AF6A56113F86
:1036E000F16BD2C541BDBBBED0A4BE726937663E88
:1036F000000000000000000035343435344134311E
:10370000353234313534354634323431344534424F
:10371000333033323330333033303330333033308F
:103720003330333033303334333033256333256330
:1037300033256333256333256333256333256333AF
:103740002563332563332563332563006C37000815
:103750000000002014000000E41600088037000874
:103760001400002074060000F416000800127A000D
:103770000000000000000000000000000000000049
:04000005080000B13E
:00000001FF
